{
  "_format": "hh-sol-artifact-1",
  "contractName": "DigitalLegacyNFT",
  "sourceName": "contracts/DigitalLegacyNFT.sol",
  "abi": [
    {
      "inputs": [],
      "stateMutability": "nonpayable",
      "type": "constructor"
    },
    {
      "inputs": [
        {
          "internalType": "address",
          "name": "sender",
          "type": "address"
        },
        {
          "internalType": "uint256",
          "name": "tokenId",
          "type": "uint256"
        },
        {
          "internalType": "address",
          "name": "owner",
          "type": "address"
        }
      ],
      "name": "ERC721IncorrectOwner",
      "type": "error"
    },
    {
      "inputs": [
        {
          "internalType": "address",
          "name": "operator",
          "type": "address"
        },
        {
          "internalType": "uint256",
          "name": "tokenId",
          "type": "uint256"
        }
      ],
      "name": "ERC721InsufficientApproval",
      "type": "error"
    },
    {
      "inputs": [
        {
          "internalType": "address",
          "name": "approver",
          "type": "address"
        }
      ],
      "name": "ERC721InvalidApprover",
      "type": "error"
    },
    {
      "inputs": [
        {
          "internalType": "address",
          "name": "operator",
          "type": "address"
        }
      ],
      "name": "ERC721InvalidOperator",
      "type": "error"
    },
    {
      "inputs": [
        {
          "internalType": "address",
          "name": "owner",
          "type": "address"
        }
      ],
      "name": "ERC721InvalidOwner",
      "type": "error"
    },
    {
      "inputs": [
        {
          "internalType": "address",
          "name": "receiver",
          "type": "address"
        }
      ],
      "name": "ERC721InvalidReceiver",
      "type": "error"
    },
    {
      "inputs": [
        {
          "internalType": "address",
          "name": "sender",
          "type": "address"
        }
      ],
      "name": "ERC721InvalidSender",
      "type": "error"
    },
    {
      "inputs": [
        {
          "internalType": "uint256",
          "name": "tokenId",
          "type": "uint256"
        }
      ],
      "name": "ERC721NonexistentToken",
      "type": "error"
    },
    {
      "inputs": [
        {
          "internalType": "address",
          "name": "owner",
          "type": "address"
        }
      ],
      "name": "OwnableInvalidOwner",
      "type": "error"
    },
    {
      "inputs": [
        {
          "internalType": "address",
          "name": "account",
          "type": "address"
        }
      ],
      "name": "OwnableUnauthorizedAccount",
      "type": "error"
    },
    {
      "anonymous": false,
      "inputs": [
        {
          "indexed": true,
          "internalType": "address",
          "name": "owner",
          "type": "address"
        },
        {
          "indexed": true,
          "internalType": "address",
          "name": "approved",
          "type": "address"
        },
        {
          "indexed": true,
          "internalType": "uint256",
          "name": "tokenId",
          "type": "uint256"
        }
      ],
      "name": "Approval",
      "type": "event"
    },
    {
      "anonymous": false,
      "inputs": [
        {
          "indexed": true,
          "internalType": "address",
          "name": "owner",
          "type": "address"
        },
        {
          "indexed": true,
          "internalType": "address",
          "name": "operator",
          "type": "address"
        },
        {
          "indexed": false,
          "internalType": "bool",
          "name": "approved",
          "type": "bool"
        }
      ],
      "name": "ApprovalForAll",
      "type": "event"
    },
    {
      "anonymous": false,
      "inputs": [
        {
          "indexed": false,
          "internalType": "uint256",
          "name": "_fromTokenId",
          "type": "uint256"
        },
        {
          "indexed": false,
          "internalType": "uint256",
          "name": "_toTokenId",
          "type": "uint256"
        }
      ],
      "name": "BatchMetadataUpdate",
      "type": "event"
    },
    {
      "anonymous": false,
      "inputs": [
        {
          "indexed": false,
          "internalType": "uint256",
          "name": "_tokenId",
          "type": "uint256"
        }
      ],
      "name": "MetadataUpdate",
      "type": "event"
    },
    {
      "anonymous": false,
      "inputs": [
        {
          "indexed": true,
          "internalType": "address",
          "name": "previousOwner",
          "type": "address"
        },
        {
          "indexed": true,
          "internalType": "address",
          "name": "newOwner",
          "type": "address"
        }
      ],
      "name": "OwnershipTransferred",
      "type": "event"
    },
    {
      "anonymous": false,
      "inputs": [
        {
          "indexed": true,
          "internalType": "address",
          "name": "from",
          "type": "address"
        },
        {
          "indexed": true,
          "internalType": "address",
          "name": "to",
          "type": "address"
        },
        {
          "indexed": true,
          "internalType": "uint256",
          "name": "tokenId",
          "type": "uint256"
        }
      ],
      "name": "Transfer",
      "type": "event"
    },
    {
      "inputs": [
        {
          "internalType": "address",
          "name": "to",
          "type": "address"
        },
        {
          "internalType": "uint256",
          "name": "tokenId",
          "type": "uint256"
        }
      ],
      "name": "approve",
      "outputs": [],
      "stateMutability": "nonpayable",
      "type": "function"
    },
    {
      "inputs": [
        {
          "internalType": "address",
          "name": "owner",
          "type": "address"
        }
      ],
      "name": "balanceOf",
      "outputs": [
        {
          "internalType": "uint256",
          "name": "",
          "type": "uint256"
        }
      ],
      "stateMutability": "view",
      "type": "function"
    },
    {
      "inputs": [
        {
          "internalType": "uint256",
          "name": "tokenId",
          "type": "uint256"
        }
      ],
      "name": "getApproved",
      "outputs": [
        {
          "internalType": "address",
          "name": "",
          "type": "address"
        }
      ],
      "stateMutability": "view",
      "type": "function"
    },
    {
      "inputs": [
        {
          "internalType": "address",
          "name": "owner",
          "type": "address"
        },
        {
          "internalType": "address",
          "name": "operator",
          "type": "address"
        }
      ],
      "name": "isApprovedForAll",
      "outputs": [
        {
          "internalType": "bool",
          "name": "",
          "type": "bool"
        }
      ],
      "stateMutability": "view",
      "type": "function"
    },
    {
      "inputs": [
        {
          "internalType": "address",
          "name": "to",
          "type": "address"
        },
        {
          "internalType": "string",
          "name": "tokenURI",
          "type": "string"
        }
      ],
      "name": "mint",
      "outputs": [],
      "stateMutability": "nonpayable",
      "type": "function"
    },
    {
      "inputs": [],
      "name": "name",
      "outputs": [
        {
          "internalType": "string",
          "name": "",
          "type": "string"
        }
      ],
      "stateMutability": "view",
      "type": "function"
    },
    {
      "inputs": [],
      "name": "nextTokenId",
      "outputs": [
        {
          "internalType": "uint256",
          "name": "",
          "type": "uint256"
        }
      ],
      "stateMutability": "view",
      "type": "function"
    },
    {
      "inputs": [],
      "name": "owner",
      "outputs": [
        {
          "internalType": "address",
          "name": "",
          "type": "address"
        }
      ],
      "stateMutability": "view",
      "type": "function"
    },
    {
      "inputs": [
        {
          "internalType": "uint256",
          "name": "tokenId",
          "type": "uint256"
        }
      ],
      "name": "ownerOf",
      "outputs": [
        {
          "internalType": "address",
          "name": "",
          "type": "address"
        }
      ],
      "stateMutability": "view",
      "type": "function"
    },
    {
      "inputs": [],
      "name": "renounceOwnership",
      "outputs": [],
      "stateMutability": "nonpayable",
      "type": "function"
    },
    {
      "inputs": [
        {
          "internalType": "address",
          "name": "from",
          "type": "address"
        },
        {
          "internalType": "address",
          "name": "to",
          "type": "address"
        },
        {
          "internalType": "uint256",
          "name": "tokenId",
          "type": "uint256"
        }
      ],
      "name": "safeTransferFrom",
      "outputs": [],
      "stateMutability": "nonpayable",
      "type": "function"
    },
    {
      "inputs": [
        {
          "internalType": "address",
          "name": "from",
          "type": "address"
        },
        {
          "internalType": "address",
          "name": "to",
          "type": "address"
        },
        {
          "internalType": "uint256",
          "name": "tokenId",
          "type": "uint256"
        },
        {
          "internalType": "bytes",
          "name": "data",
          "type": "bytes"
        }
      ],
      "name": "safeTransferFrom",
      "outputs": [],
      "stateMutability": "nonpayable",
      "type": "function"
    },
    {
      "inputs": [
        {
          "internalType": "address",
          "name": "operator",
          "type": "address"
        },
        {
          "internalType": "bool",
          "name": "approved",
          "type": "bool"
        }
      ],
      "name": "setApprovalForAll",
      "outputs": [],
      "stateMutability": "nonpayable",
      "type": "function"
    },
    {
      "inputs": [
        {
          "internalType": "bytes4",
          "name": "interfaceId",
          "type": "bytes4"
        }
      ],
      "name": "supportsInterface",
      "outputs": [
        {
          "internalType": "bool",
          "name": "",
          "type": "bool"
        }
      ],
      "stateMutability": "view",
      "type": "function"
    },
    {
      "inputs": [],
      "name": "symbol",
      "outputs": [
        {
          "internalType": "string",
          "name": "",
          "type": "string"
        }
      ],
      "stateMutability": "view",
      "type": "function"
    },
    {
      "inputs": [
        {
          "internalType": "uint256",
          "name": "tokenId",
          "type": "uint256"
        }
      ],
      "name": "tokenURI",
      "outputs": [
        {
          "internalType": "string",
          "name": "",
          "type": "string"
        }
      ],
      "stateMutability": "view",
      "type": "function"
    },
    {
      "inputs": [
        {
          "internalType": "address",
          "name": "from",
          "type": "address"
        },
        {
          "internalType": "address",
          "name": "to",
          "type": "address"
        },
        {
          "internalType": "uint256",
          "name": "tokenId",
          "type": "uint256"
        }
      ],
      "name": "transferFrom",
      "outputs": [],
      "stateMutability": "nonpayable",
      "type": "function"
    },
    {
      "inputs": [
        {
          "internalType": "address",
          "name": "newOwner",
          "type": "address"
        }
      ],
      "name": "transferOwnership",
      "outputs": [],
      "stateMutability": "nonpayable",
      "type": "function"
    }
  ],
  "bytecode": "0x60806040523480156200001157600080fd5b50336040518060400160405280601581526020017f4469676974616c204c65676163792054726f70687900000000000000000000008152506040518060400160405280600381526020017f444c540000000000000000000000000000000000000000000000000000000000815250816000908162000090919062000472565b508060019081620000a2919062000472565b505050600073ffffffffffffffffffffffffffffffffffffffff168173ffffffffffffffffffffffffffffffffffffffff16036200011a5760006040517f1e4fbdf70000000000000000000000000000000000000000000000000000000081526004016200011191906200059e565b60405180910390fd5b6200012b816200013260201b60201c565b50620005bb565b6000600760009054906101000a900473ffffffffffffffffffffffffffffffffffffffff16905081600760006101000a81548173ffffffffffffffffffffffffffffffffffffffff021916908373ffffffffffffffffffffffffffffffffffffffff1602179055508173ffffffffffffffffffffffffffffffffffffffff168173ffffffffffffffffffffffffffffffffffffffff167f8be0079c531659141344cd1fd0a4f28419497f9722a3daafe3b4186f6b6457e060405160405180910390a35050565b600081519050919050565b7f4e487b7100000000000000000000000000000000000000000000000000000000600052604160045260246000fd5b7f4e487b7100000000000000000000000000000000000000000000000000000000600052602260045260246000fd5b600060028204905060018216806200027a57607f821691505b60208210810362000290576200028f62000232565b5b50919050565b60008190508160005260206000209050919050565b60006020601f8301049050919050565b600082821b905092915050565b600060088302620002fa7fffffffffffffffffffffffffffffffffffffffffffffffffffffffffffffffff82620002bb565b620003068683620002bb565b95508019841693508086168417925050509392505050565b6000819050919050565b6000819050919050565b6000620003536200034d62000347846200031e565b62000328565b6200031e565b9050919050565b6000819050919050565b6200036f8362000332565b620003876200037e826200035a565b848454620002c8565b825550505050565b600090565b6200039e6200038f565b620003ab81848462000364565b505050565b5b81811015620003d357620003c760008262000394565b600181019050620003b1565b5050565b601f8211156200042257620003ec8162000296565b620003f784620002ab565b8101602085101562000407578190505b6200041f6200041685620002ab565b830182620003b0565b50505b505050565b600082821c905092915050565b6000620004476000198460080262000427565b1980831691505092915050565b600062000462838362000434565b9150826002028217905092915050565b6200047d82620001f8565b67ffffffffffffffff81111562000499576200049862000203565b5b620004a5825462000261565b620004b2828285620003d7565b600060209050601f831160018114620004ea5760008415620004d5578287015190505b620004e1858262000454565b86555062000551565b601f198416620004fa8662000296565b60005b828110156200052457848901518255600182019150602085019450602081019050620004fd565b8683101562000544578489015162000540601f89168262000434565b8355505b6001600288020188555050505b505050505050565b600073ffffffffffffffffffffffffffffffffffffffff82169050919050565b6000620005868262000559565b9050919050565b620005988162000579565b82525050565b6000602082019050620005b560008301846200058d565b92915050565b61269380620005cb6000396000f3fe608060405234801561001057600080fd5b50600436106101165760003560e01c806375794a3c116100a2578063b88d4fde11610071578063b88d4fde146102cd578063c87b56dd146102e9578063d0def52114610319578063e985e9c514610335578063f2fde38b1461036557610116565b806375794a3c146102575780638da5cb5b1461027557806395d89b4114610293578063a22cb465146102b157610116565b806323b872dd116100e957806323b872dd146101b557806342842e0e146101d15780636352211e146101ed57806370a082311461021d578063715018a61461024d57610116565b806301ffc9a71461011b57806306fdde031461014b578063081812fc14610169578063095ea7b314610199575b600080fd5b61013560048036038101906101309190611aeb565b610381565b6040516101429190611b33565b60405180910390f35b6101536103e2565b6040516101609190611bde565b60405180910390f35b610183600480360381019061017e9190611c36565b610474565b6040516101909190611ca4565b60405180910390f35b6101b360048036038101906101ae9190611ceb565b610490565b005b6101cf60048036038101906101ca9190611d2b565b6104a6565b005b6101eb60048036038101906101e69190611d2b565b6105a8565b005b61020760048036038101906102029190611c36565b6105c8565b6040516102149190611ca4565b60405180910390f35b61023760048036038101906102329190611d7e565b6105da565b6040516102449190611dba565b60405180910390f35b610255610694565b005b61025f6106a8565b60405161026c9190611dba565b60405180910390f35b61027d6106ae565b60405161028a9190611ca4565b60405180910390f35b61029b6106d8565b6040516102a89190611bde565b60405180910390f35b6102cb60048036038101906102c69190611e01565b61076a565b005b6102e760048036038101906102e29190611f76565b610780565b005b61030360048036038101906102fe9190611c36565b6107a5565b6040516103109190611bde565b60405180910390f35b610333600480360381019061032e919061209a565b6108b8565b005b61034f600480360381019061034a91906120f6565b6108f4565b60405161035c9190611b33565b60405180910390f35b61037f600480360381019061037a9190611d7e565b610988565b005b6000634906490660e01b7bffffffffffffffffffffffffffffffffffffffffffffffffffffffff1916827bffffffffffffffffffffffffffffffffffffffffffffffffffffffff191614806103db57506103da82610a0e565b5b9050919050565b6060600080546103f190612165565b80601f016020809104026020016040519081016040528092919081815260200182805461041d90612165565b801561046a5780601f1061043f5761010080835404028352916020019161046a565b820191906000526020600020905b81548152906001019060200180831161044d57829003601f168201915b5050505050905090565b600061047f82610af0565b5061048982610b78565b9050919050565b6104a2828261049d610bb5565b610bbd565b5050565b600073ffffffffffffffffffffffffffffffffffffffff168273ffffffffffffffffffffffffffffffffffffffff16036105185760006040517f64a0ae9200000000000000000000000000000000000000000000000000000000815260040161050f9190611ca4565b60405180910390fd5b600061052c8383610527610bb5565b610bcf565b90508373ffffffffffffffffffffffffffffffffffffffff168173ffffffffffffffffffffffffffffffffffffffff16146105a2578382826040517f64283d7b00000000000000000000000000000000000000000000000000000000815260040161059993929190612196565b60405180910390fd5b50505050565b6105c383838360405180602001604052806000815250610780565b505050565b60006105d382610af0565b9050919050565b60008073ffffffffffffffffffffffffffffffffffffffff168273ffffffffffffffffffffffffffffffffffffffff160361064d5760006040517f89c62b640000000000000000000000000000000000000000000000000000000081526004016106449190611ca4565b60405180910390fd5b600360008373ffffffffffffffffffffffffffffffffffffffff1673ffffffffffffffffffffffffffffffffffffffff168152602001908152602001600020549050919050565b61069c610de9565b6106a66000610e70565b565b60085481565b6000600760009054906101000a900473ffffffffffffffffffffffffffffffffffffffff16905090565b6060600180546106e790612165565b80601f016020809104026020016040519081016040528092919081815260200182805461071390612165565b80156107605780601f1061073557610100808354040283529160200191610760565b820191906000526020600020905b81548152906001019060200180831161074357829003601f168201915b5050505050905090565b61077c610775610bb5565b8383610f36565b5050565b61078b8484846104a6565b61079f610796610bb5565b858585856110a5565b50505050565b60606107b082610af0565b5060006006600084815260200190815260200160002080546107d190612165565b80601f01602080910402602001604051908101604052809291908181526020018280546107fd90612165565b801561084a5780601f1061081f5761010080835404028352916020019161084a565b820191906000526020600020905b81548152906001019060200180831161082d57829003601f168201915b50505050509050600061085b611256565b905060008151036108705781925050506108b3565b6000825111156108a557808260405160200161088d929190612209565b604051602081830303815290604052925050506108b3565b6108ae8461126d565b925050505b919050565b6108c0610de9565b6108cc826008546112d6565b6108d8600854826112f4565b600860008154809291906108eb9061225c565b91905055505050565b6000600560008473ffffffffffffffffffffffffffffffffffffffff1673ffffffffffffffffffffffffffffffffffffffff16815260200190815260200160002060008373ffffffffffffffffffffffffffffffffffffffff1673ffffffffffffffffffffffffffffffffffffffff16815260200190815260200160002060009054906101000a900460ff16905092915050565b610990610de9565b600073ffffffffffffffffffffffffffffffffffffffff168173ffffffffffffffffffffffffffffffffffffffff1603610a025760006040517f1e4fbdf70000000000000000000000000000000000000000000000000000000081526004016109f99190611ca4565b60405180910390fd5b610a0b81610e70565b50565b60007f80ac58cd000000000000000000000000000000000000000000000000000000007bffffffffffffffffffffffffffffffffffffffffffffffffffffffff1916827bffffffffffffffffffffffffffffffffffffffffffffffffffffffff19161480610ad957507f5b5e139f000000000000000000000000000000000000000000000000000000007bffffffffffffffffffffffffffffffffffffffffffffffffffffffff1916827bffffffffffffffffffffffffffffffffffffffffffffffffffffffff1916145b80610ae95750610ae882611350565b5b9050919050565b600080610afc836113ba565b9050600073ffffffffffffffffffffffffffffffffffffffff168173ffffffffffffffffffffffffffffffffffffffff1603610b6f57826040517f7e273289000000000000000000000000000000000000000000000000000000008152600401610b669190611dba565b60405180910390fd5b80915050919050565b60006004600083815260200190815260200160002060009054906101000a900473ffffffffffffffffffffffffffffffffffffffff169050919050565b600033905090565b610bca83838360016113f7565b505050565b600080610bdb846113ba565b9050600073ffffffffffffffffffffffffffffffffffffffff168373ffffffffffffffffffffffffffffffffffffffff1614610c1d57610c1c8184866115bc565b5b600073ffffffffffffffffffffffffffffffffffffffff168173ffffffffffffffffffffffffffffffffffffffff1614610cae57610c5f6000856000806113f7565b6001600360008373ffffffffffffffffffffffffffffffffffffffff1673ffffffffffffffffffffffffffffffffffffffff168152602001908152602001600020600082825403925050819055505b600073ffffffffffffffffffffffffffffffffffffffff168573ffffffffffffffffffffffffffffffffffffffff1614610d31576001600360008773ffffffffffffffffffffffffffffffffffffffff1673ffffffffffffffffffffffffffffffffffffffff168152602001908152602001600020600082825401925050819055505b846002600086815260200190815260200160002060006101000a81548173ffffffffffffffffffffffffffffffffffffffff021916908373ffffffffffffffffffffffffffffffffffffffff160217905550838573ffffffffffffffffffffffffffffffffffffffff168273ffffffffffffffffffffffffffffffffffffffff167fddf252ad1be2c89b69c2b068fc378daa952ba7f163c4a11628f55a4df523b3ef60405160405180910390a4809150509392505050565b610df1610bb5565b73ffffffffffffffffffffffffffffffffffffffff16610e0f6106ae565b73ffffffffffffffffffffffffffffffffffffffff1614610e6e57610e32610bb5565b6040517f118cdaa7000000000000000000000000000000000000000000000000000000008152600401610e659190611ca4565b60405180910390fd5b565b6000600760009054906101000a900473ffffffffffffffffffffffffffffffffffffffff16905081600760006101000a81548173ffffffffffffffffffffffffffffffffffffffff021916908373ffffffffffffffffffffffffffffffffffffffff1602179055508173ffffffffffffffffffffffffffffffffffffffff168173ffffffffffffffffffffffffffffffffffffffff167f8be0079c531659141344cd1fd0a4f28419497f9722a3daafe3b4186f6b6457e060405160405180910390a35050565b600073ffffffffffffffffffffffffffffffffffffffff168273ffffffffffffffffffffffffffffffffffffffff1603610fa757816040517f5b08ba18000000000000000000000000000000000000000000000000000000008152600401610f9e9190611ca4565b60405180910390fd5b80600560008573ffffffffffffffffffffffffffffffffffffffff1673ffffffffffffffffffffffffffffffffffffffff16815260200190815260200160002060008473ffffffffffffffffffffffffffffffffffffffff1673ffffffffffffffffffffffffffffffffffffffff16815260200190815260200160002060006101000a81548160ff0219169083151502179055508173ffffffffffffffffffffffffffffffffffffffff168373ffffffffffffffffffffffffffffffffffffffff167f17307eab39ab6107e8899845ad3d59bd9653f200f220920489ca2b5937696c31836040516110989190611b33565b60405180910390a3505050565b60008373ffffffffffffffffffffffffffffffffffffffff163b111561124f578273ffffffffffffffffffffffffffffffffffffffff1663150b7a02868685856040518563ffffffff1660e01b815260040161110494939291906122f9565b6020604051808303816000875af192505050801561114057506040513d601f19601f8201168201806040525081019061113d919061235a565b60015b6111c4573d8060008114611170576040519150601f19603f3d011682016040523d82523d6000602084013e611175565b606091505b5060008151036111bc57836040517f64a0ae920000000000000000000000000000000000000000000000000000000081526004016111b39190611ca4565b60405180910390fd5b805181602001fd5b63150b7a0260e01b7bffffffffffffffffffffffffffffffffffffffffffffffffffffffff1916817bffffffffffffffffffffffffffffffffffffffffffffffffffffffff19161461124d57836040517f64a0ae920000000000000000000000000000000000000000000000000000000081526004016112449190611ca4565b60405180910390fd5b505b5050505050565b606060405180602001604052806000815250905090565b606061127882610af0565b506000611283611256565b905060008151116112a357604051806020016040528060008152506112ce565b806112ad84611680565b6040516020016112be929190612209565b6040516020818303038152906040525b915050919050565b6112f082826040518060200160405280600081525061174e565b5050565b806006600084815260200190815260200160002090816113149190612533565b507ff8e1a15aba9398e019f0b49df1a4fde98ee17ae345cb5f6b5e2c27f5033e8ce7826040516113449190611dba565b60405180910390a15050565b60007f01ffc9a7000000000000000000000000000000000000000000000000000000007bffffffffffffffffffffffffffffffffffffffffffffffffffffffff1916827bffffffffffffffffffffffffffffffffffffffffffffffffffffffff1916149050919050565b60006002600083815260200190815260200160002060009054906101000a900473ffffffffffffffffffffffffffffffffffffffff169050919050565b80806114305750600073ffffffffffffffffffffffffffffffffffffffff168273ffffffffffffffffffffffffffffffffffffffff1614155b1561156457600061144084610af0565b9050600073ffffffffffffffffffffffffffffffffffffffff168373ffffffffffffffffffffffffffffffffffffffff16141580156114ab57508273ffffffffffffffffffffffffffffffffffffffff168173ffffffffffffffffffffffffffffffffffffffff1614155b80156114be57506114bc81846108f4565b155b1561150057826040517fa9fbf51f0000000000000000000000000000000000000000000000000000000081526004016114f79190611ca4565b60405180910390fd5b811561156257838573ffffffffffffffffffffffffffffffffffffffff168273ffffffffffffffffffffffffffffffffffffffff167f8c5be1e5ebec7d5bd14f71427d1e84f3dd0314c0f7b2291e5b200ac8c7c3b92560405160405180910390a45b505b836004600085815260200190815260200160002060006101000a81548173ffffffffffffffffffffffffffffffffffffffff021916908373ffffffffffffffffffffffffffffffffffffffff16021790555050505050565b6115c7838383611772565b61167b57600073ffffffffffffffffffffffffffffffffffffffff168373ffffffffffffffffffffffffffffffffffffffff160361163c57806040517f7e2732890000000000000000000000000000000000000000000000000000000081526004016116339190611dba565b60405180910390fd5b81816040517f177e802f000000000000000000000000000000000000000000000000000000008152600401611672929190612605565b60405180910390fd5b505050565b60606000600161168f84611833565b01905060008167ffffffffffffffff8111156116ae576116ad611e4b565b5b6040519080825280601f01601f1916602001820160405280156116e05781602001600182028036833780820191505090505b509050600082602001820190505b600115611743578080600190039150507f3031323334353637383961626364656600000000000000000000000000000000600a86061a8153600a85816117375761173661262e565b5b049450600085036116ee575b819350505050919050565b6117588383611986565b61176d611763610bb5565b60008585856110a5565b505050565b60008073ffffffffffffffffffffffffffffffffffffffff168373ffffffffffffffffffffffffffffffffffffffff161415801561182a57508273ffffffffffffffffffffffffffffffffffffffff168473ffffffffffffffffffffffffffffffffffffffff1614806117eb57506117ea84846108f4565b5b8061182957508273ffffffffffffffffffffffffffffffffffffffff1661181183610b78565b73ffffffffffffffffffffffffffffffffffffffff16145b5b90509392505050565b600080600090507a184f03e93ff9f4daa797ed6e38ed64bf6a1f0100000000000000008310611891577a184f03e93ff9f4daa797ed6e38ed64bf6a1f01000000000000000083816118875761188661262e565b5b0492506040810190505b6d04ee2d6d415b85acef810000000083106118ce576d04ee2d6d415b85acef810000000083816118c4576118c361262e565b5b0492506020810190505b662386f26fc1000083106118fd57662386f26fc1000083816118f3576118f261262e565b5b0492506010810190505b6305f5e1008310611926576305f5e100838161191c5761191b61262e565b5b0492506008810190505b612710831061194b5761271083816119415761194061262e565b5b0492506004810190505b6064831061196e57606483816119645761196361262e565b5b0492506002810190505b600a831061197d576001810190505b80915050919050565b600073ffffffffffffffffffffffffffffffffffffffff168273ffffffffffffffffffffffffffffffffffffffff16036119f85760006040517f64a0ae920000000000000000000000000000000000000000000000000000000081526004016119ef9190611ca4565b60405180910390fd5b6000611a0683836000610bcf565b9050600073ffffffffffffffffffffffffffffffffffffffff168173ffffffffffffffffffffffffffffffffffffffff1614611a7a5760006040517f73c6ac6e000000000000000000000000000000000000000000000000000000008152600401611a719190611ca4565b60405180910390fd5b505050565b6000604051905090565b600080fd5b600080fd5b60007fffffffff0000000000000000000000000000000000000000000000000000000082169050919050565b611ac881611a93565b8114611ad357600080fd5b50565b600081359050611ae581611abf565b92915050565b600060208284031215611b0157611b00611a89565b5b6000611b0f84828501611ad6565b91505092915050565b60008115159050919050565b611b2d81611b18565b82525050565b6000602082019050611b486000830184611b24565b92915050565b600081519050919050565b600082825260208201905092915050565b60005b83811015611b88578082015181840152602081019050611b6d565b60008484015250505050565b6000601f19601f8301169050919050565b6000611bb082611b4e565b611bba8185611b59565b9350611bca818560208601611b6a565b611bd381611b94565b840191505092915050565b60006020820190508181036000830152611bf88184611ba5565b905092915050565b6000819050919050565b611c1381611c00565b8114611c1e57600080fd5b50565b600081359050611c3081611c0a565b92915050565b600060208284031215611c4c57611c4b611a89565b5b6000611c5a84828501611c21565b91505092915050565b600073ffffffffffffffffffffffffffffffffffffffff82169050919050565b6000611c8e82611c63565b9050919050565b611c9e81611c83565b82525050565b6000602082019050611cb96000830184611c95565b92915050565b611cc881611c83565b8114611cd357600080fd5b50565b600081359050611ce581611cbf565b92915050565b60008060408385031215611d0257611d01611a89565b5b6000611d1085828601611cd6565b9250506020611d2185828601611c21565b9150509250929050565b600080600060608486031215611d4457611d43611a89565b5b6000611d5286828701611cd6565b9350506020611d6386828701611cd6565b9250506040611d7486828701611c21565b9150509250925092565b600060208284031215611d9457611d93611a89565b5b6000611da284828501611cd6565b91505092915050565b611db481611c00565b82525050565b6000602082019050611dcf6000830184611dab565b92915050565b611dde81611b18565b8114611de957600080fd5b50565b600081359050611dfb81611dd5565b92915050565b60008060408385031215611e1857611e17611a89565b5b6000611e2685828601611cd6565b9250506020611e3785828601611dec565b9150509250929050565b600080fd5b600080fd5b7f4e487b7100000000000000000000000000000000000000000000000000000000600052604160045260246000fd5b611e8382611b94565b810181811067ffffffffffffffff82111715611ea257611ea1611e4b565b5b80604052505050565b6000611eb5611a7f565b9050611ec18282611e7a565b919050565b600067ffffffffffffffff821115611ee157611ee0611e4b565b5b611eea82611b94565b9050602081019050919050565b82818337600083830152505050565b6000611f19611f1484611ec6565b611eab565b905082815260208101848484011115611f3557611f34611e46565b5b611f40848285611ef7565b509392505050565b600082601f830112611f5d57611f5c611e41565b5b8135611f6d848260208601611f06565b91505092915050565b60008060008060808587031215611f9057611f8f611a89565b5b6000611f9e87828801611cd6565b9450506020611faf87828801611cd6565b9350506040611fc087828801611c21565b925050606085013567ffffffffffffffff811115611fe157611fe0611a8e565b5b611fed87828801611f48565b91505092959194509250565b600067ffffffffffffffff82111561201457612013611e4b565b5b61201d82611b94565b9050602081019050919050565b600061203d61203884611ff9565b611eab565b90508281526020810184848401111561205957612058611e46565b5b612064848285611ef7565b509392505050565b600082601f83011261208157612080611e41565b5b813561209184826020860161202a565b91505092915050565b600080604083850312156120b1576120b0611a89565b5b60006120bf85828601611cd6565b925050602083013567ffffffffffffffff8111156120e0576120df611a8e565b5b6120ec8582860161206c565b9150509250929050565b6000806040838503121561210d5761210c611a89565b5b600061211b85828601611cd6565b925050602061212c85828601611cd6565b9150509250929050565b7f4e487b7100000000000000000000000000000000000000000000000000000000600052602260045260246000fd5b6000600282049050600182168061217d57607f821691505b6020821081036121905761218f612136565b5b50919050565b60006060820190506121ab6000830186611c95565b6121b86020830185611dab565b6121c56040830184611c95565b949350505050565b600081905092915050565b60006121e382611b4e565b6121ed81856121cd565b93506121fd818560208601611b6a565b80840191505092915050565b600061221582856121d8565b915061222182846121d8565b91508190509392505050565b7f4e487b7100000000000000000000000000000000000000000000000000000000600052601160045260246000fd5b600061226782611c00565b91507fffffffffffffffffffffffffffffffffffffffffffffffffffffffffffffffff82036122995761229861222d565b5b600182019050919050565b600081519050919050565b600082825260208201905092915050565b60006122cb826122a4565b6122d581856122af565b93506122e5818560208601611b6a565b6122ee81611b94565b840191505092915050565b600060808201905061230e6000830187611c95565b61231b6020830186611c95565b6123286040830185611dab565b818103606083015261233a81846122c0565b905095945050505050565b60008151905061235481611abf565b92915050565b6000602082840312156123705761236f611a89565b5b600061237e84828501612345565b91505092915050565b60008190508160005260206000209050919050565b60006020601f8301049050919050565b600082821b905092915050565b6000600883026123e97fffffffffffffffffffffffffffffffffffffffffffffffffffffffffffffffff826123ac565b6123f386836123ac565b95508019841693508086168417925050509392505050565b6000819050919050565b600061243061242b61242684611c00565b61240b565b611c00565b9050919050565b6000819050919050565b61244a83612415565b61245e61245682612437565b8484546123b9565b825550505050565b600090565b612473612466565b61247e818484612441565b505050565b5b818110156124a25761249760008261246b565b600181019050612484565b5050565b601f8211156124e7576124b881612387565b6124c18461239c565b810160208510156124d0578190505b6124e46124dc8561239c565b830182612483565b50505b505050565b600082821c905092915050565b600061250a600019846008026124ec565b1980831691505092915050565b600061252383836124f9565b9150826002028217905092915050565b61253c82611b4e565b67ffffffffffffffff81111561255557612554611e4b565b5b61255f8254612165565b61256a8282856124a6565b600060209050601f83116001811461259d576000841561258b578287015190505b6125958582612517565b8655506125fd565b601f1984166125ab86612387565b60005b828110156125d3578489015182556001820191506020850194506020810190506125ae565b868310156125f057848901516125ec601f8916826124f9565b8355505b6001600288020188555050505b505050505050565b600060408201905061261a6000830185611c95565b6126276020830184611dab565b9392505050565b7f4e487b7100000000000000000000000000000000000000000000000000000000600052601260045260246000fdfea2646970667358221220492b84187166b5f4d3cf921a8599bc8818b19e12267f0b1ca497532276b99ddf64736f6c63430008140033",
  "linkReferences": {},
  "deployedLinkReferences": {}
}